:020000040000FA
:060000000A128A11FC2F18
:100F300083120313081088148316031308108810F3
:100F400088150815A32F031083120313081C03141C
:100F50000318AB2FAF2F831203130814B22F831281
:100F6000031308100310881C03140318B82FBC2F98
:100F7000831203138814BF2F831203138810881D54
:100F8000C22FC32FD12F081DC62FC72FD12F8230BC
:100F9000F100DD30F000F00BCB2FF10BCB2FD02F79
:100FA000A32F8819D42FD52FDA2F081DD82FD92F8A
:100FB000E82FDA2F0230F2004530F100A930F000BE
:100FC000F00BE02FF10BE02FF20BE02FE72FA32F18
:100FD0000330F2008A30F1005530F000F00BEE2FB4
:100FE000F10BEE2FF20BEE2FF52FA32FA32FA32F34
:100FF000A32F0A128A11002883010A128A11982F3E
:02400E00D4EFED
:00000001FF
